:020000040800F2
:100000007006002029020008B30500083D0500081D
:10001000B10500082B030008CD0500080000000012
:10002000000000000000000000000000B70500080C
:100030002D03000800000000B5050008B905000800
:10004000430200084302000843020008430200087C
:10005000430200084302000843020008430200086C
:10006000430200084302000843020008430200085C
:10007000430200084302000843020008430200084C
:10008000430200084302000843020008430200083C
:10009000430200084302000843020008430200082C
:1000A000430200084302000843020008430200081C
:1000B000430200084302000843020008430200080C
:1000C00043020008430200084302000843020008FC
:1000D00043020008430200084302000843020008EC
:1000E00043020008430200084302000843020008DC
:1000F00043020008430200084302000843020008CC
:1001000043020008430200084302000843020008BB
:1001100043020008430200084302000843020008AB
:10012000430200084302000843020008430200089B
:10013000430200084302000843020008430200088B
:10014000430200084302000843020008430200087B
:10015000430200084302000843020008430200086B
:10016000430200084302000843020008430200085B
:100170004302000843020008430200080000000098
:10018000430200084302000800F002F800F03CF8C7
:100190000AA090E8000C82448344AAF10107DA45E2
:1001A00001D100F031F8AFF2090EBAE80F0013F0F8
:1001B000010F18BFFB1A43F0010318472404000085
:1001C00044040000103A24BF78C878C1FAD8520716
:1001D00024BF30C830C144BF04680C6070470000C1
:1001E0000023002400250026103A28BF78C1FBD840
:1001F000520728BF30C148BF0B6070471FB500F0E1
:10020000E9F91FBD10B510BD00F058F81146FFF711
:10021000F5FF00F0DCF900F076F803B4FFF7F2FF29
:1002200003BC00F07BF800000948804709480047FC
:10023000FEE7FEE7FEE7FEE7FEE7FEE7FEE7FEE796
:10024000FEE7FEE704480549054A064B70470000F3
:10025000BD0500088901000870000020700600201C
:1002600070020020700200204FF0000200B513461B
:1002700094469646203922BFA0E80C50A0E80C50C6
:10028000B1F12001BFF4F7AF090728BFA0E80C5077
:1002900048BF0CC05DF804EB890028BF40F8042B70
:1002A00008BF704748BF20F8022B11F0804F18BFDD
:1002B00000F8012B7047704770477047754600F093
:1002C00029F8AE4605006946534620F007008546EA
:1002D00018B020B5FFF7B6FFBDE820404FF000068C
:1002E0004FF000074FF000084FF0000B21F007011E
:1002F000AC46ACE8C009ACE8C009ACE8C009ACE861
:10030000C0098D4670470446AFF300802046FFF7D2
:1003100084FF0000004870470C00002001491820AD
:10032000ABBEFEE7260002007047FEE77047000004
:100330002DE9F84FDFF8BCA10022012503264FF07C
:100340000F090AF1040BAAF1040E00BF0B6805FAAD
:1003500002F42340A34270D10F7907F00307012F65
:1003600001D0022F16D187684FEA420806FA08FC2E
:1003700027EA0C07D1F80CC00CFA08FC4CEA070C71
:10038000C0F808C04768A7430C79C4F30014944030
:100390003C4344600C79E443A4070AD0C4684FEAA4
:1003A000420C06FA0CF7BC438F6807FA0CF7274398
:1003B000C7600C7904F00304022C12D1D40800EBBE
:1003C000840CDCF820405707FF0E09FA07F824EAEE
:1003D0000804D1F8108008FA07F848EA0408CCF8B5
:1003E000208004684FEA420C06FA0CF7BC430F79F0
:1003F00007F0030707FA0CF7274307604C6814F46B
:10040000403F70D03C4C276847F480472760246801
:1004100022F0030704F480440094384C07EB040CEA
:10042000DCF8084897074FEA177809FA08F7BC4341
:10043000334FB84202D1002724E054E0314FB84294
:1004400001D101271EE0304FB84201D1022719E047
:100450002E4FB84201D1032714E02D4FB84201D1ED
:1004600004270FE02B4FB84201D105270AE02A4F9D
:10047000B84201D1062705E0284FB84201D107272D
:1004800000E0082707FA08F72743CCF80878DAF8DD
:1004900000405746D1F804C09C435FEACC2C00D5FD
:1004A0001C433C60DBF800405F46D1F804C09C432D
:1004B0005FEA8C2C00D51C433C60DEF80040774698
:1004C000D1F804C09C435FEA8C3C00D51C433C60DF
:1004D000084F083F3C68D1F804C09C435FEACC3C1D
:1004E00000D51C433C60521C102AFFF42FAFBDE81E
:1004F000F88F0000083C01404438024000300140C1
:10050000000002400004024000080240000C0240CB
:10051000001002400014024000180240001C02407B
:100520000AB1816170470904FBE700000248816855
:10053000027811448160704700000020FEE700004F
:1005400030B587B014216846FFF78EFE16480024A8
:10055000016841F080010160016801F080010591AE
:10056000016841F004010160016801F00401059196
:10057000016841F00101016000680C4D00F00100CC
:100580000590002280212846FFF7CAFF80200090B6
:10059000012001900220CDE9020469462846FFF7B8
:1005A000C7FE07B030BD00003038024000080240EE
:1005B000FEE7FEE770477047FFF7B8BF02480168E3
:1005C00041F470010160704788ED00E0FEE7FFF73D
:1005D000B7FFFEE74FF04070E1EE100A70470000F1
:1005E00000060008000000200C000000C401000804
:1005F0000C0600080C00002064060000E001000862
:0C060000010000001000000000000000DD
:040000050800018965
:00000001FF
